:107000006BC00000AAC000008EC000008CC0000051
:107010008AC0000088C0000086C0000084C0000054
:1070200082C0000080C000007EC000007CC0000064
:107030007AC0000078C0000076C0000074C0000074
:1070400072C0000070C000006EC000006CC0000084
:107050006AC0000068C0000066C0000064C0000094
:1070600062C0000060C00000EC2DFD2DB7B6B0FC82
:10707000FDCF27BFE895B7B6B0FCFDCF21E1B7B68D
:10708000B6FCF4CF08950902120001010080320914
:10709000040000000000000012011001FF000008C1
:1070A000C016DC050201010200010E035500530069
:1070B00042006100730070001C03770077007700C6
:1070C0002E00660069007300630068006C002E00EB
:1070D000640065000403090411241FBECFEFD8E04B
:1070E000DEBFCDBF24B7D8E0CEEF39913833399128
:1070F00009F03FEF30933C0120933B0111E0A0E009
:10710000B1E0EAE8F8E702C005900D92A630B107B9
:10711000D9F721E0A6E0B1E001C01D92AB33B20780
:10712000E1F77DD1B0C36CCFA82FB92F80E090E0FC
:1071300041E050EA609530E009C02D918227979593
:10714000879510F084279527305EC8F36F5FA8F30A
:107150000895EADF8D939D930895CF93CFB7CF9392
:10716000DF93C3954B9BE9F74B9B0BC04B9B09C02F
:107170004B9B07C04B9B05C04B9B03C04B9B01C067
:1071800089C06F93C0911E01DD27CB5DDE4F2F9329
:1071900065E54B9B03C02F916F91E6CF0F931F9333
:1071A0004F9320E040E15F9309B10C7003FB27F996
:1071B0003F9350E03BE039C01C7040642F77012FB3
:1071C0005F5F1EC0406819B11C702F7752501FC0FE
:1071D000406409B12F770C70D1F15F5F00C023C00C
:1071E000406219B12F771C7091F15F5F00C025C01C
:1071F0000C701027515012F45D5F0000115027955C
:107200002C3F19B1C8F61C700127015027952C3F5F
:10721000C8F64227499309B10C7010274F731150DB
:1072200027952C3FA8F64695469519B11C7079F024
:107230000127015027952C3F98F66B5A60F3315087
:1072400009B1B0F600C011E01CBB002717C03B50CD
:107250003195C31BD04011E01CBB0881033CF9F001
:107260000B34E9F020911C011981110F1213EDCF9D
:10727000093651F10D3211F0013E39F70093230127
:107280003F915F914F911F910F912F916F91CCB3CF
:10729000C0FD67CFDF91CF91CFBFCF9118952091DF
:1072A0002301222369F310912101112339F5343090
:1072B0003AF13093210120931D0110911E013BE012
:1072C000311B30931E011CC0009121010130B4F428
:1072D0000AE53091010134FD14C000930101C1E1C0
:1072E000D1E013C0052710E000C000000BB91AC0A0
:1072F000052710E0221F1DC010E021C04AE502C092
:1073000032ED432FC4E1D0E032E01AB11C605B9A49
:107310000BB11AB95CE020E865E320FF05270BB943
:10732000279517951C3FF0F66695B8F7B1F720FF43
:1073300005270BB9279517951C3FD0F6279517956C
:1073400017FF052700001C3F0BB9B0F629913A95AD
:1073500019F7037F10912201110FC651D0400BB9CC
:1073600011F010931C0111E01CBB08601AB1137FCF
:10737000402F437F54E05A95F1F70BB91AB94BB936
:107380007FCFDC0113963C911397932F1496EC91C9
:1073900014978E2F12962C911297203331F4E370AC
:1073A000F0E0EE5FFE4F80810895283529F4311119
:1073B0000EC0E1E0F0E006C0203599F431110CC0B8
:1073C000E0E0F0E089E08093570084910895383040
:1073D00021F5E3E0F0E0F6CF3830F9F4E2E0F0E058
:1073E000F1CF203221F4FC01EE0FFF1F06C028323E
:1073F00031F4FC01EE0FFF1F319684910895203A7D
:1074000009F42BC2203C21F415966C912ED205C0B4
:107410002F3F19F481EF80930F0180E0089517B892
:1074200082E088B991E095BF85BFE0E0F1E7A895DB
:1074300031978040E1F780913B01877F21F4809173
:107440003C01882371F0319B0CC0F894539A18B812
:107450001DBA1092690081E085BF15BEE0E0F0E042
:1074600009958EEF80930F0114BE0FB6F894A8957E
:1074700080916000886180936000109260000FBE70
:1074800080916900826080936900E89A539A8CE049
:10749000E0E0F5E3A89531978040E1F753987894C0
:1074A00010912101135017FD41C180911E01CCE0C4
:1074B000D0E0C81BD109CB5DDE4F80911D018D321C
:1074C00009F0B8C0183009F02FC183EC8093110186
:1074D0008AE580930101109210013881832F807614
:1074E00099818823C1F146E051E0509320014093F7
:1074F0001F01933031F4CE0144DF8093090184E011
:107500008FC0953009F48BC09A3009F488C08CEF95
:10751000890F8630B0F44A815B8150930E0140930D
:107520000D01993009F491C18E8180930C012D8158
:10753000227020930B0190930A0137FD6CC08FEFEE
:107540006AC080910F01923011F48E7F01C081607A
:1075500080930F017AC18A8110921A01911106C09D
:1075600010921B012AE131E082E050C0953019F4FD
:10757000809322013DC09630A9F59B81913019F48A
:1075800088E990E704C0923041F486E890E7909350
:10759000200180931F0182E121C09330F1F4811119
:1075A00008C084ED90E79093200180931F0184E050
:1075B00015C0813041F488EB90E7909320018093CF
:1075C0001F018CE10BC0823041F48AEA90E790936E
:1075D000200180931F018EE001C080E090E4909331
:1075E00010011EC0983079F0993031F48093240155
:1075F0002AE131E080E00AC081E09A3009F080E0C1
:107600002AE131E003C024E231E081E0309320013F
:1076100020931F0105C090E89093100108C081E0FD
:107620009F81911104C09E81981708F4892F80933F
:1076300000017AC08091100187FF76C000910C0193
:10764000011708F4102F011B00930C01F12CF11607
:1076500008F066C020910A0180910D0190910E0101
:10766000273080F06E01FFEFCF1ADF0A68819C019E
:107670002F5F3F4F30930E0120930D01F6D0F3940E
:10768000E601E5CF8115904708F04CC0F394F394E0
:10769000F894E0910D01F0910E012991399181E06A
:1076A000090180935700E8951124789480910D0189
:1076B00090910E01029690930E0180930D018F77A9
:1076C0009927892B51F00111C2CFF11608F4BFCFD1
:1076D00080910B01882309F4BACFF894E0910D0151
:1076E000F0910E01329783E080935700E8957894EB
:1076F00007B600FCFDCFF894E0910D01F0910E016A
:10770000329785E080935700E895789407B600FC9F
:10771000FDCFF89481E180935700E895789497CF56
:10772000011102C01092000110922101809101010B
:1077300084FF67C0809100018F3F09F462C0C82FA9
:10774000893008F0C8E08C1B8093000190911101F2
:1077500088E8892780931101CC2309F478C08091AF
:10776000100187FF2AC080910C018C1708F4C82FE4
:107770008C1B80930C01D0900A01D0E082E1E82EAE
:1077800081E0F82ECD1789F100910D0110910E01C5
:1077900086E08D1518F4C80160D002C0F80184910C
:1077A000F7018083FFEFEF1AFF0A0F5F1F4F10935F
:1077B0000E0100930D01DF5FE5CFE0911F01F09115
:1077C0002001A2E1B1E086FF07C08C2F94919D9328
:1077D00031968150D9F705C08C2F91919D9381509E
:1077E000E1F7F0932001E0931F016C2F82E191E01B
:1077F000B0DCCC5FCC3019F08FEF80930001C093E8
:10780000010184E199B19C7031F48150D9F7109253
:10781000220110921C0180910F01803130F0319BC8
:107820000FC080910F01805109C0319909C080912A
:107830000F01823028F080910F01825080930F0158
:1078400080910F0181112CCE00CE80E0E9CE60E066
:1078500082E191E07EDCC4E0CFCFF999FECF92BD0A
:1078600081BDF89A992780B50895262FF999FECF02
:107870001FBA92BD81BD20BD0FB6F894FA9AF99A4D
:0A7880000FBE01960895F894FFCFA3
:06788A00FF5A1E950F00DD
:040000030000700089
:00000001FF
